{
  "contracts/Ponzi.sol": {
    "PonziContract": {
      "abi": [
        {
          "anonymous": false,
          "inputs": [
            {
              "indexed": true,
              "internalType": "address",
              "name": "previousOwner",
              "type": "address"
            },
            {
              "indexed": true,
              "internalType": "address",
              "name": "newOwner",
              "type": "address"
            }
          ],
          "name": "OwnershipTransferred",
          "type": "event"
        },
        {
          "anonymous": false,
          "inputs": [
            {
              "indexed": false,
              "internalType": "uint256",
              "name": "registrationDeadline",
              "type": "uint256"
            }
          ],
          "name": "RegistrationDeadline",
          "type": "event"
        },
        {
          "anonymous": false,
          "inputs": [
            {
              "indexed": false,
              "internalType": "uint256",
              "name": "amount",
              "type": "uint256"
            }
          ],
          "name": "Withdraw",
          "type": "event"
        },
        {
          "inputs": [
            {
              "internalType": "address",
              "name": "newAfilliate",
              "type": "address"
            }
          ],
          "name": "addNewAffilliate",
          "outputs": [],
          "stateMutability": "nonpayable",
          "type": "function"
        },
        {
          "inputs": [
            {
              "internalType": "address",
              "name": "",
              "type": "address"
            }
          ],
          "name": "affiliates",
          "outputs": [
            {
              "internalType": "bool",
              "name": "",
              "type": "bool"
            }
          ],
          "stateMutability": "view",
          "type": "function"
        },
        {
          "inputs": [],
          "name": "affiliatesCount",
          "outputs": [
            {
              "internalType": "uint256",
              "name": "",
              "type": "uint256"
            }
          ],
          "stateMutability": "view",
          "type": "function"
        },
        {
          "inputs": [
            {
              "internalType": "uint256",
              "name": "",
              "type": "uint256"
            }
          ],
          "name": "affiliates_",
          "outputs": [
            {
              "internalType": "address",
              "name": "",
              "type": "address"
            }
          ],
          "stateMutability": "view",
          "type": "function"
        },
        {
          "inputs": [
            {
              "internalType": "address",
              "name": "newAdmin",
              "type": "address"
            }
          ],
          "name": "buyOwnerRole",
          "outputs": [],
          "stateMutability": "payable",
          "type": "function"
        },
        {
          "inputs": [
            {
              "internalType": "address[]",
              "name": "_afilliates",
              "type": "address[]"
            }
          ],
          "name": "joinPonzi",
          "outputs": [],
          "stateMutability": "payable",
          "type": "function"
        },
        {
          "inputs": [],
          "name": "owner",
          "outputs": [
            {
              "internalType": "address",
              "name": "",
              "type": "address"
            }
          ],
          "stateMutability": "view",
          "type": "function"
        },
        {
          "inputs": [
            {
              "internalType": "address",
              "name": "to",
              "type": "address"
            },
            {
              "internalType": "uint256",
              "name": "amount",
              "type": "uint256"
            }
          ],
          "name": "ownerWithdraw",
          "outputs": [],
          "stateMutability": "nonpayable",
          "type": "function"
        },
        {
          "inputs": [],
          "name": "renounceOwnership",
          "outputs": [],
          "stateMutability": "nonpayable",
          "type": "function"
        },
        {
          "inputs": [
            {
              "internalType": "uint256",
              "name": "_regDeadline",
              "type": "uint256"
            }
          ],
          "name": "setDeadline",
          "outputs": [],
          "stateMutability": "nonpayable",
          "type": "function"
        },
        {
          "inputs": [
            {
              "internalType": "address",
              "name": "newOwner",
              "type": "address"
            }
          ],
          "name": "transferOwnership",
          "outputs": [],
          "stateMutability": "nonpayable",
          "type": "function"
        },
        {
          "stateMutability": "payable",
          "type": "receive"
        }
      ],
      "evm": {
        "bytecode": {
          "linkReferences": {},
          "object": "608060405234801561001057600080fd5b50600160008190555061003561002a61003a60201b60201c565b61004260201b60201c565b610108565b600033905090565b6000600160009054906101000a900473ffffffffffffffffffffffffffffffffffffffff16905081600160006101000a81548173ffffffffffffffffffffffffffffffffffffffff021916908373ffffffffffffffffffffffffffffffffffffffff1602179055508173ffffffffffffffffffffffffffffffffffffffff168173ffffffffffffffffffffffffffffffffffffffff167f8be0079c531659141344cd1fd0a4f28419497f9722a3daafe3b4186f6b6457e060405160405180910390a35050565b611463806101176000396000f3fe6080604052600436106100a05760003560e01c80637c6f8a4f116100645780637c6f8a4f1461017d5780638da5cb5b146101ba5780638f998523146101e5578063d17e777d14610201578063d9c88e141461021d578063f2fde38b14610246576100a7565b8063195199f6146100ac5780633eb3b9d7146100d55780634f51e2941461010057806354e624751461013d578063715018a614610166576100a7565b366100a757005b600080fd5b3480156100b857600080fd5b506100d360048036038101906100ce9190610cc5565b61026f565b005b3480156100e157600080fd5b506100ea61032e565b6040516100f79190610d01565b60405180910390f35b34801561010c57600080fd5b5061012760048036038101906101229190610d7a565b610334565b6040516101349190610dc2565b60405180910390f35b34801561014957600080fd5b50610164600480360381019061015f9190610d7a565b610354565b005b34801561017257600080fd5b5061017b6104a8565b005b34801561018957600080fd5b506101a4600480360381019061019f9190610cc5565b610530565b6040516101b19190610dec565b60405180910390f35b3480156101c657600080fd5b506101cf61056f565b6040516101dc9190610dec565b60405180910390f35b6101ff60048036038101906101fa9190610d7a565b610599565b005b61021b60048036038101906102169190610e6c565b6106d4565b005b34801561022957600080fd5b50610244600480360381019061023f9190610eb9565b61099f565b005b34801561025257600080fd5b5061026d60048036038101906102689190610d7a565b610abf565b005b610277610bb7565b73ffffffffffffffffffffffffffffffffffffffff1661029561056f565b73ffffffffffffffffffffffffffffffffffffffff16146102eb576040517f08c379a00000000000000000000000000000000000000000000000000000000081526004016102e290610f56565b60405180910390fd5b806002819055507fa5578432a8668d55afd8c2f7b7d6341d25fad387c558cab06890c34b0e59e81f6002546040516103239190610d01565b60405180910390a150565b60055481565b60046020528060005260406000206000915054906101000a900460ff1681565b61035c610bb7565b73ffffffffffffffffffffffffffffffffffffffff1661037a61056f565b73ffffffffffffffffffffffffffffffffffffffff16146103d0576040517f08c379a00000000000000000000000000000000000000000000000000000000081526004016103c790610f56565b60405180910390fd5b6001600560008282546103e39190610fa5565b925050819055506001600460008373ffffffffffffffffffffffffffffffffffffffff1673ffffffffffffffffffffffffffffffffffffffff16815260200190815260200160002060006101000a81548160ff0219169083151502179055506003819080600181540180825580915050600190039060005260206000200160009091909190916101000a81548173ffffffffffffffffffffffffffffffffffffffff021916908373ffffffffffffffffffffffffffffffffffffffff16021790555050565b6104b0610bb7565b73ffffffffffffffffffffffffffffffffffffffff166104ce61056f565b73ffffffffffffffffffffffffffffffffffffffff1614610524576040517f08c379a000000000000000000000000000000000000000000000000000000000815260040161051b90610f56565b60405180910390fd5b61052e6000610bbf565b565b6003818154811061054057600080fd5b906000526020600020016000915054906101000a900473ffffffffffffffffffffffffffffffffffffffff1681565b6000600160009054906101000a900473ffffffffffffffffffffffffffffffffffffffff16905090565b600080600090505b600554811015610635573373ffffffffffffffffffffffffffffffffffffffff16600382815481106105d6576105d5610ffb565b5b9060005260206000200160009054906101000a900473ffffffffffffffffffffffffffffffffffffffff1673ffffffffffffffffffffffffffffffffffffffff16141561062257600191505b808061062d9061102a565b9150506105a1565b50600115158115151461067d576040517f08c379a0000000000000000000000000000000000000000000000000000000008152600401610674906110bf565b60405180910390fd5b678ac7230489e8000034146106c7576040517f08c379a00000000000000000000000000000000000000000000000000000000081526004016106be9061112b565b60405180910390fd5b6106d082610bbf565b5050565b6002600054141561071a576040517f08c379a000000000000000000000000000000000000000000000000000000000815260040161071190611197565b60405180910390fd5b60026000819055506002544210610766576040517f08c379a000000000000000000000000000000000000000000000000000000000815260040161075d90611203565b60405180910390fd5b60055482829050146107ad576040517f08c379a00000000000000000000000000000000000000000000000000000000081526004016107a49061126f565b60405180910390fd5b670de0b6b3a76400006005546107c3919061128f565b3414610804576040517f08c379a00000000000000000000000000000000000000000000000000000000081526004016107fb90611335565b60405180910390fd5b60005b828290508110156108bd5782828281811061082557610824610ffb565b5b905060200201602081019061083a9190610d7a565b73ffffffffffffffffffffffffffffffffffffffff16670de0b6b3a764000060405161086590611386565b60006040518083038185875af1925050503d80600081146108a2576040519150601f19603f3d011682016040523d82523d6000602084013e6108a7565b606091505b50505080806108b59061102a565b915050610807565b506001600560008282546108d19190610fa5565b925050819055506001600460003373ffffffffffffffffffffffffffffffffffffffff1673ffffffffffffffffffffffffffffffffffffffff16815260200190815260200160002060006101000a81548160ff0219169083151502179055506003339080600181540180825580915050600190039060005260206000200160009091909190916101000a81548173ffffffffffffffffffffffffffffffffffffffff021916908373ffffffffffffffffffffffffffffffffffffffff16021790555060016000819055505050565b6109a7610bb7565b73ffffffffffffffffffffffffffffffffffffffff166109c561056f565b73ffffffffffffffffffffffffffffffffffffffff1614610a1b576040517f08c379a0000000000000000000000000000000000000000000000000000000008152600401610a1290610f56565b60405180910390fd5b8173ffffffffffffffffffffffffffffffffffffffff1681604051610a3f90611386565b60006040518083038185875af1925050503d8060008114610a7c576040519150601f19603f3d011682016040523d82523d6000602084013e610a81565b606091505b5050507f5b6b431d4476a211bb7d41c20d1aab9ae2321deee0d20be3d9fc9b1093fa6e3d81604051610ab39190610d01565b60405180910390a15050565b610ac7610bb7565b73ffffffffffffffffffffffffffffffffffffffff16610ae561056f565b73ffffffffffffffffffffffffffffffffffffffff1614610b3b576040517f08c379a0000000000000000000000000000000000000000000000000000000008152600401610b3290610f56565b60405180910390fd5b600073ffffffffffffffffffffffffffffffffffffffff168173ffffffffffffffffffffffffffffffffffffffff161415610bab576040517f08c379a0000000000000000000000000000000000000000000000000000000008152600401610ba29061140d565b60405180910390fd5b610bb481610bbf565b50565b600033905090565b6000600160009054906101000a900473ffffffffffffffffffffffffffffffffffffffff16905081600160006101000a81548173ffffffffffffffffffffffffffffffffffffffff021916908373ffffffffffffffffffffffffffffffffffffffff1602179055508173ffffffffffffffffffffffffffffffffffffffff168173ffffffffffffffffffffffffffffffffffffffff167f8be0079c531659141344cd1fd0a4f28419497f9722a3daafe3b4186f6b6457e060405160405180910390a35050565b600080fd5b600080fd5b6000819050919050565b610ca281610c8f565b8114610cad57600080fd5b50565b600081359050610cbf81610c99565b92915050565b600060208284031215610cdb57610cda610c85565b5b6000610ce984828501610cb0565b91505092915050565b610cfb81610c8f565b82525050565b6000602082019050610d166000830184610cf2565b92915050565b600073ffffffffffffffffffffffffffffffffffffffff82169050919050565b6000610d4782610d1c565b9050919050565b610d5781610d3c565b8114610d6257600080fd5b50565b600081359050610d7481610d4e565b92915050565b600060208284031215610d9057610d8f610c85565b5b6000610d9e84828501610d65565b91505092915050565b60008115159050919050565b610dbc81610da7565b82525050565b6000602082019050610dd76000830184610db3565b92915050565b610de681610d3c565b82525050565b6000602082019050610e016000830184610ddd565b92915050565b600080fd5b600080fd5b600080fd5b60008083601f840112610e2c57610e2b610e07565b5b8235905067ffffffffffffffff811115610e4957610e48610e0c565b5b602083019150836020820283011115610e6557610e64610e11565b5b9250929050565b60008060208385031215610e8357610e82610c85565b5b600083013567ffffffffffffffff811115610ea157610ea0610c8a565b5b610ead85828601610e16565b92509250509250929050565b60008060408385031215610ed057610ecf610c85565b5b6000610ede85828601610d65565b9250506020610eef85828601610cb0565b9150509250929050565b600082825260208201905092915050565b7f4f776e61626c653a2063616c6c6572206973206e6f7420746865206f776e6572600082015250565b6000610f40602083610ef9565b9150610f4b82610f0a565b602082019050919050565b60006020820190508181036000830152610f6f81610f33565b9050919050565b7f4e487b7100000000000000000000000000000000000000000000000000000000600052601160045260246000fd5b6000610fb082610c8f565b9150610fbb83610c8f565b9250827fffffffffffffffffffffffffffffffffffffffffffffffffffffffffffffffff03821115610ff057610fef610f76565b5b828201905092915050565b7f4e487b7100000000000000000000000000000000000000000000000000000000600052603260045260246000fd5b600061103582610c8f565b91507fffffffffffffffffffffffffffffffffffffffffffffffffffffffffffffffff82141561106857611067610f76565b5b600182019050919050565b7f4e6f7420616e20416666696c6961746521000000000000000000000000000000600082015250565b60006110a9601183610ef9565b91506110b482611073565b602082019050919050565b600060208201905081810360008301526110d88161109c565b9050919050565b7f496e76616c696420457468657220616d6f756e74000000000000000000000000600082015250565b6000611115601483610ef9565b9150611120826110df565b602082019050919050565b6000602082019050818103600083015261114481611108565b9050919050565b7f5265656e7472616e637947756172643a207265656e7472616e742063616c6c00600082015250565b6000611181601f83610ef9565b915061118c8261114b565b602082019050919050565b600060208201905081810360008301526111b081611174565b9050919050565b7f526567697374726174696f6e206e6f7420416374697665210000000000000000600082015250565b60006111ed601883610ef9565b91506111f8826111b7565b602082019050919050565b6000602082019050818103600083015261121c816111e0565b9050919050565b7f496e76616c6964206c656e677468000000000000000000000000000000000000600082015250565b6000611259600e83610ef9565b915061126482611223565b602082019050919050565b600060208201905081810360008301526112888161124c565b9050919050565b600061129a82610c8f565b91506112a583610c8f565b9250817fffffffffffffffffffffffffffffffffffffffffffffffffffffffffffffffff04831182151516156112de576112dd610f76565b5b828202905092915050565b7f496e73756666696369656e742045746865720000000000000000000000000000600082015250565b600061131f601283610ef9565b915061132a826112e9565b602082019050919050565b6000602082019050818103600083015261134e81611312565b9050919050565b600081905092915050565b50565b6000611370600083611355565b915061137b82611360565b600082019050919050565b600061139182611363565b9150819050919050565b7f4f776e61626c653a206e6577206f776e657220697320746865207a65726f206160008201527f6464726573730000000000000000000000000000000000000000000000000000602082015250565b60006113f7602683610ef9565b91506114028261139b565b604082019050919050565b60006020820190508181036000830152611426816113ea565b905091905056fea264697066735822122061b24c4e2f36d92cf0b2d9cac9351d0e5127c82b800fbe6bf122dca22dab9a0d64736f6c634300080a0033",
          "opcodes": "PUSH1 0x80 PUSH1 0x40 MSTORE CALLVALUE DUP1 ISZERO PUSH2 0x10 JUMPI PUSH1 0x0 DUP1 REVERT JUMPDEST POP PUSH1 0x1 PUSH1 0x0 DUP2 SWAP1 SSTORE POP PUSH2 0x35 PUSH2 0x2A PUSH2 0x3A PUSH1 0x20 SHL PUSH1 0x20 SHR JUMP JUMPDEST PUSH2 0x42 PUSH1 0x20 SHL PUSH1 0x20 SHR JUMP JUMPDEST PUSH2 0x108 JUMP JUMPDEST PUSH1 0x0 CALLER SWAP1 POP SWAP1 JUMP JUMPDEST PUSH1 0x0 PUSH1 0x1 PUSH1 0x0 SWAP1 SLOAD SWAP1 PUSH2 0x100 EXP SWAP1 DIV PUSH20 0xFFFFFFFFFFFFFFFFFFFFFFFFFFFFFFFFFFFFFFFF AND SWAP1 POP DUP2 PUSH1 0x1 PUSH1 0x0 PUSH2 0x100 EXP DUP2 SLOAD DUP2 PUSH20 0xFFFFFFFFFFFFFFFFFFFFFFFFFFFFFFFFFFFFFFFF MUL NOT AND SWAP1 DUP4 PUSH20 0xFFFFFFFFFFFFFFFFFFFFFFFFFFFFFFFFFFFFFFFF AND MUL OR SWAP1 SSTORE POP DUP2 PUSH20 0xFFFFFFFFFFFFFFFFFFFFFFFFFFFFFFFFFFFFFFFF AND DUP2 PUSH20 0xFFFFFFFFFFFFFFFFFFFFFFFFFFFFFFFFFFFFFFFF AND PUSH32 0x8BE0079C531659141344CD1FD0A4F28419497F9722A3DAAFE3B4186F6B6457E0 PUSH1 0x40 MLOAD PUSH1 0x40 MLOAD DUP1 SWAP2 SUB SWAP1 LOG3 POP POP JUMP JUMPDEST PUSH2 0x1463 DUP1 PUSH2 0x117 PUSH1 0x0 CODECOPY PUSH1 0x0 RETURN INVALID PUSH1 0x80 PUSH1 0x40 MSTORE PUSH1 0x4 CALLDATASIZE LT PUSH2 0xA0 JUMPI PUSH1 0x0 CALLDATALOAD PUSH1 0xE0 SHR DUP1 PUSH4 0x7C6F8A4F GT PUSH2 0x64 JUMPI DUP1 PUSH4 0x7C6F8A4F EQ PUSH2 0x17D JUMPI DUP1 PUSH4 0x8DA5CB5B EQ PUSH2 0x1BA JUMPI DUP1 PUSH4 0x8F998523 EQ PUSH2 0x1E5 JUMPI DUP1 PUSH4 0xD17E777D EQ PUSH2 0x201 JUMPI DUP1 PUSH4 0xD9C88E14 EQ PUSH2 0x21D JUMPI DUP1 PUSH4 0xF2FDE38B EQ PUSH2 0x246 JUMPI PUSH2 0xA7 JUMP JUMPDEST DUP1 PUSH4 0x195199F6 EQ PUSH2 0xAC JUMPI DUP1 PUSH4 0x3EB3B9D7 EQ PUSH2 0xD5 JUMPI DUP1 PUSH4 0x4F51E294 EQ PUSH2 0x100 JUMPI DUP1 PUSH4 0x54E62475 EQ PUSH2 0x13D JUMPI DUP1 PUSH4 0x715018A6 EQ PUSH2 0x166 JUMPI PUSH2 0xA7 JUMP JUMPDEST CALLDATASIZE PUSH2 0xA7 JUMPI STOP JUMPDEST PUSH1 0x0 DUP1 REVERT JUMPDEST CALLVALUE DUP1 ISZERO PUSH2 0xB8 JUMPI PUSH1 0x0 DUP1 REVERT JUMPDEST POP PUSH2 0xD3 PUSH1 0x4 DUP1 CALLDATASIZE SUB DUP2 ADD SWAP1 PUSH2 0xCE SWAP2 SWAP1 PUSH2 0xCC5 JUMP JUMPDEST PUSH2 0x26F JUMP JUMPDEST STOP JUMPDEST CALLVALUE DUP1 ISZERO PUSH2 0xE1 JUMPI PUSH1 0x0 DUP1 REVERT JUMPDEST POP PUSH2 0xEA PUSH2 0x32E JUMP JUMPDEST PUSH1 0x40 MLOAD PUSH2 0xF7 SWAP2 SWAP1 PUSH2 0xD01 JUMP JUMPDEST PUSH1 0x40 MLOAD DUP1 SWAP2 SUB SWAP1 RETURN JUMPDEST CALLVALUE DUP1 ISZERO PUSH2 0x10C JUMPI PUSH1 0x0 DUP1 REVERT JUMPDEST POP PUSH2 0x127 PUSH1 0x4 DUP1 CALLDATASIZE SUB DUP2 ADD SWAP1 PUSH2 0x122 SWAP2 SWAP1 PUSH2 0xD7A JUMP JUMPDEST PUSH2 0x334 JUMP JUMPDEST PUSH1 0x40 MLOAD PUSH2 0x134 SWAP2 SWAP1 PUSH2 0xDC2 JUMP JUMPDEST PUSH1 0x40 MLOAD DUP1 SWAP2 SUB SWAP1 RETURN JUMPDEST CALLVALUE DUP1 ISZERO PUSH2 0x149 JUMPI PUSH1 0x0 DUP1 REVERT JUMPDEST POP PUSH2 0x164 PUSH1 0x4 DUP1 CALLDATASIZE SUB DUP2 ADD SWAP1 PUSH2 0x15F SWAP2 SWAP1 PUSH2 0xD7A JUMP JUMPDEST PUSH2 0x354 JUMP JUMPDEST STOP JUMPDEST CALLVALUE DUP1 ISZERO PUSH2 0x172 JUMPI PUSH1 0x0 DUP1 REVERT JUMPDEST POP PUSH2 0x17B PUSH2 0x4A8 JUMP JUMPDEST STOP JUMPDEST CALLVALUE DUP1 ISZERO PUSH2 0x189 JUMPI PUSH1 0x0 DUP1 REVERT JUMPDEST POP PUSH2 0x1A4 PUSH1 0x4 DUP1 CALLDATASIZE SUB DUP2 ADD SWAP1 PUSH2 0x19F SWAP2 SWAP1 PUSH2 0xCC5 JUMP JUMPDEST PUSH2 0x530 JUMP JUMPDEST PUSH1 0x40 MLOAD PUSH2 0x1B1 SWAP2 SWAP1 PUSH2 0xDEC JUMP JUMPDEST PUSH1 0x40 MLOAD DUP1 SWAP2 SUB SWAP1 RETURN JUMPDEST CALLVALUE DUP1 ISZERO PUSH2 0x1C6 JUMPI PUSH1 0x0 DUP1 REVERT JUMPDEST POP PUSH2 0x1CF PUSH2 0x56F JUMP JUMPDEST PUSH1 0x40 MLOAD PUSH2 0x1DC SWAP2 SWAP1 PUSH2 0xDEC JUMP JUMPDEST PUSH1 0x40 MLOAD DUP1 SWAP2 SUB SWAP1 RETURN JUMPDEST PUSH2 0x1FF PUSH1 0x4 DUP1 CALLDATASIZE SUB DUP2 ADD SWAP1 PUSH2 0x1FA SWAP2 SWAP1 PUSH2 0xD7A JUMP JUMPDEST PUSH2 0x599 JUMP JUMPDEST STOP JUMPDEST PUSH2 0x21B PUSH1 0x4 DUP1 CALLDATASIZE SUB DUP2 ADD SWAP1 PUSH2 0x216 SWAP2 SWAP1 PUSH2 0xE6C JUMP JUMPDEST PUSH2 0x6D4 JUMP JUMPDEST STOP JUMPDEST CALLVALUE DUP1 ISZERO PUSH2 0x229 JUMPI PUSH1 0x0 DUP1 REVERT JUMPDEST POP PUSH2 0x244 PUSH1 0x4 DUP1 CALLDATASIZE SUB DUP2 ADD SWAP1 PUSH2 0x23F SWAP2 SWAP1 PUSH2 0xEB9 JUMP JUMPDEST PUSH2 0x99F JUMP JUMPDEST STOP JUMPDEST CALLVALUE DUP1 ISZERO PUSH2 0x252 JUMPI PUSH1 0x0 DUP1 REVERT JUMPDEST POP PUSH2 0x26D PUSH1 0x4 DUP1 CALLDATASIZE SUB DUP2 ADD SWAP1 PUSH2 0x268 SWAP2 SWAP1 PUSH2 0xD7A JUMP JUMPDEST PUSH2 0xABF JUMP JUMPDEST STOP JUMPDEST PUSH2 0x277 PUSH2 0xBB7 JUMP JUMPDEST PUSH20 0xFFFFFFFFFFFFFFFFFFFFFFFFFFFFFFFFFFFFFFFF AND PUSH2 0x295 PUSH2 0x56F JUMP JUMPDEST PUSH20 0xFFFFFFFFFFFFFFFFFFFFFFFFFFFFFFFFFFFFFFFF AND EQ PUSH2 0x2EB JUMPI PUSH1 0x40 MLOAD PUSH32 0x8C379A000000000000000000000000000000000000000000000000000000000 DUP2 MSTORE PUSH1 0x4 ADD PUSH2 0x2E2 SWAP1 PUSH2 0xF56 JUMP JUMPDEST PUSH1 0x40 MLOAD DUP1 SWAP2 SUB SWAP1 REVERT JUMPDEST DUP1 PUSH1 0x2 DUP2 SWAP1 SSTORE POP PUSH32 0xA5578432A8668D55AFD8C2F7B7D6341D25FAD387C558CAB06890C34B0E59E81F PUSH1 0x2 SLOAD PUSH1 0x40 MLOAD PUSH2 0x323 SWAP2 SWAP1 PUSH2 0xD01 JUMP JUMPDEST PUSH1 0x40 MLOAD DUP1 SWAP2 SUB SWAP1 LOG1 POP JUMP JUMPDEST PUSH1 0x5 SLOAD DUP2 JUMP JUMPDEST PUSH1 0x4 PUSH1 0x20 MSTORE DUP1 PUSH1 0x0 MSTORE PUSH1 0x40 PUSH1 0x0 KECCAK256 PUSH1 0x0 SWAP2 POP SLOAD SWAP1 PUSH2 0x100 EXP SWAP1 DIV PUSH1 0xFF AND DUP2 JUMP JUMPDEST PUSH2 0x35C PUSH2 0xBB7 JUMP JUMPDEST PUSH20 0xFFFFFFFFFFFFFFFFFFFFFFFFFFFFFFFFFFFFFFFF AND PUSH2 0x37A PUSH2 0x56F JUMP JUMPDEST PUSH20 0xFFFFFFFFFFFFFFFFFFFFFFFFFFFFFFFFFFFFFFFF AND EQ PUSH2 0x3D0 JUMPI PUSH1 0x40 MLOAD PUSH32 0x8C379A000000000000000000000000000000000000000000000000000000000 DUP2 MSTORE PUSH1 0x4 ADD PUSH2 0x3C7 SWAP1 PUSH2 0xF56 JUMP JUMPDEST PUSH1 0x40 MLOAD DUP1 SWAP2 SUB SWAP1 REVERT JUMPDEST PUSH1 0x1 PUSH1 0x5 PUSH1 0x0 DUP3 DUP3 SLOAD PUSH2 0x3E3 SWAP2 SWAP1 PUSH2 0xFA5 JUMP JUMPDEST SWAP3 POP POP DUP2 SWAP1 SSTORE POP PUSH1 0x1 PUSH1 0x4 PUSH1 0x0 DUP4 PUSH20 0xFFFFFFFFFFFFFFFFFFFFFFFFFFFFFFFFFFFFFFFF AND PUSH20 0xFFFFFFFFFFFFFFFFFFFFFFFFFFFFFFFFFFFFFFFF AND DUP2 MSTORE PUSH1 0x20 ADD SWAP1 DUP2 MSTORE PUSH1 0x20 ADD PUSH1 0x0 KECCAK256 PUSH1 0x0 PUSH2 0x100 EXP DUP2 SLOAD DUP2 PUSH1 0xFF MUL NOT AND SWAP1 DUP4 ISZERO ISZERO MUL OR SWAP1 SSTORE POP PUSH1 0x3 DUP2 SWAP1 DUP1 PUSH1 0x1 DUP2 SLOAD ADD DUP1 DUP3 SSTORE DUP1 SWAP2 POP POP PUSH1 0x1 SWAP1 SUB SWAP1 PUSH1 0x0 MSTORE PUSH1 0x20 PUSH1 0x0 KECCAK256 ADD PUSH1 0x0 SWAP1 SWAP2 SWAP1 SWAP2 SWAP1 SWAP2 PUSH2 0x100 EXP DUP2 SLOAD DUP2 PUSH20 0xFFFFFFFFFFFFFFFFFFFFFFFFFFFFFFFFFFFFFFFF MUL NOT AND SWAP1 DUP4 PUSH20 0xFFFFFFFFFFFFFFFFFFFFFFFFFFFFFFFFFFFFFFFF AND MUL OR SWAP1 SSTORE POP POP JUMP JUMPDEST PUSH2 0x4B0 PUSH2 0xBB7 JUMP JUMPDEST PUSH20 0xFFFFFFFFFFFFFFFFFFFFFFFFFFFFFFFFFFFFFFFF AND PUSH2 0x4CE PUSH2 0x56F JUMP JUMPDEST PUSH20 0xFFFFFFFFFFFFFFFFFFFFFFFFFFFFFFFFFFFFFFFF AND EQ PUSH2 0x524 JUMPI PUSH1 0x40 MLOAD PUSH32 0x8C379A000000000000000000000000000000000000000000000000000000000 DUP2 MSTORE PUSH1 0x4 ADD PUSH2 0x51B SWAP1 PUSH2 0xF56 JUMP JUMPDEST PUSH1 0x40 MLOAD DUP1 SWAP2 SUB SWAP1 REVERT JUMPDEST PUSH2 0x52E PUSH1 0x0 PUSH2 0xBBF JUMP JUMPDEST JUMP JUMPDEST PUSH1 0x3 DUP2 DUP2 SLOAD DUP2 LT PUSH2 0x540 JUMPI PUSH1 0x0 DUP1 REVERT JUMPDEST SWAP1 PUSH1 0x0 MSTORE PUSH1 0x20 PUSH1 0x0 KECCAK256 ADD PUSH1 0x0 SWAP2 POP SLOAD SWAP1 PUSH2 0x100 EXP SWAP1 DIV PUSH20 0xFFFFFFFFFFFFFFFFFFFFFFFFFFFFFFFFFFFFFFFF AND DUP2 JUMP JUMPDEST PUSH1 0x0 PUSH1 0x1 PUSH1 0x0 SWAP1 SLOAD SWAP1 PUSH2 0x100 EXP SWAP1 DIV PUSH20 0xFFFFFFFFFFFFFFFFFFFFFFFFFFFFFFFFFFFFFFFF AND SWAP1 POP SWAP1 JUMP JUMPDEST PUSH1 0x0 DUP1 PUSH1 0x0 SWAP1 POP JUMPDEST PUSH1 0x5 SLOAD DUP2 LT ISZERO PUSH2 0x635 JUMPI CALLER PUSH20 0xFFFFFFFFFFFFFFFFFFFFFFFFFFFFFFFFFFFFFFFF AND PUSH1 0x3 DUP3 DUP2 SLOAD DUP2 LT PUSH2 0x5D6 JUMPI PUSH2 0x5D5 PUSH2 0xFFB JUMP JUMPDEST JUMPDEST SWAP1 PUSH1 0x0 MSTORE PUSH1 0x20 PUSH1 0x0 KECCAK256 ADD PUSH1 0x0 SWAP1 SLOAD SWAP1 PUSH2 0x100 EXP SWAP1 DIV PUSH20 0xFFFFFFFFFFFFFFFFFFFFFFFFFFFFFFFFFFFFFFFF AND PUSH20 0xFFFFFFFFFFFFFFFFFFFFFFFFFFFFFFFFFFFFFFFF AND EQ ISZERO PUSH2 0x622 JUMPI PUSH1 0x1 SWAP2 POP JUMPDEST DUP1 DUP1 PUSH2 0x62D SWAP1 PUSH2 0x102A JUMP JUMPDEST SWAP2 POP POP PUSH2 0x5A1 JUMP JUMPDEST POP PUSH1 0x1 ISZERO ISZERO DUP2 ISZERO ISZERO EQ PUSH2 0x67D JUMPI PUSH1 0x40 MLOAD PUSH32 0x8C379A000000000000000000000000000000000000000000000000000000000 DUP2 MSTORE PUSH1 0x4 ADD PUSH2 0x674 SWAP1 PUSH2 0x10BF JUMP JUMPDEST PUSH1 0x40 MLOAD DUP1 SWAP2 SUB SWAP1 REVERT JUMPDEST PUSH8 0x8AC7230489E80000 CALLVALUE EQ PUSH2 0x6C7 JUMPI PUSH1 0x40 MLOAD PUSH32 0x8C379A000000000000000000000000000000000000000000000000000000000 DUP2 MSTORE PUSH1 0x4 ADD PUSH2 0x6BE SWAP1 PUSH2 0x112B JUMP JUMPDEST PUSH1 0x40 MLOAD DUP1 SWAP2 SUB SWAP1 REVERT JUMPDEST PUSH2 0x6D0 DUP3 PUSH2 0xBBF JUMP JUMPDEST POP POP JUMP JUMPDEST PUSH1 0x2 PUSH1 0x0 SLOAD EQ ISZERO PUSH2 0x71A JUMPI PUSH1 0x40 MLOAD PUSH32 0x8C379A000000000000000000000000000000000000000000000000000000000 DUP2 MSTORE PUSH1 0x4 ADD PUSH2 0x711 SWAP1 PUSH2 0x1197 JUMP JUMPDEST PUSH1 0x40 MLOAD DUP1 SWAP2 SUB SWAP1 REVERT JUMPDEST PUSH1 0x2 PUSH1 0x0 DUP2 SWAP1 SSTORE POP PUSH1 0x2 SLOAD TIMESTAMP LT PUSH2 0x766 JUMPI PUSH1 0x40 MLOAD PUSH32 0x8C379A000000000000000000000000000000000000000000000000000000000 DUP2 MSTORE PUSH1 0x4 ADD PUSH2 0x75D SWAP1 PUSH2 0x1203 JUMP JUMPDEST PUSH1 0x40 MLOAD DUP1 SWAP2 SUB SWAP1 REVERT JUMPDEST PUSH1 0x5 SLOAD DUP3 DUP3 SWAP1 POP EQ PUSH2 0x7AD JUMPI PUSH1 0x40 MLOAD PUSH32 0x8C379A000000000000000000000000000000000000000000000000000000000 DUP2 MSTORE PUSH1 0x4 ADD PUSH2 0x7A4 SWAP1 PUSH2 0x126F JUMP JUMPDEST PUSH1 0x40 MLOAD DUP1 SWAP2 SUB SWAP1 REVERT JUMPDEST PUSH8 0xDE0B6B3A7640000 PUSH1 0x5 SLOAD PUSH2 0x7C3 SWAP2 SWAP1 PUSH2 0x128F JUMP JUMPDEST CALLVALUE EQ PUSH2 0x804 JUMPI PUSH1 0x40 MLOAD PUSH32 0x8C379A000000000000000000000000000000000000000000000000000000000 DUP2 MSTORE PUSH1 0x4 ADD PUSH2 0x7FB SWAP1 PUSH2 0x1335 JUMP JUMPDEST PUSH1 0x40 MLOAD DUP1 SWAP2 SUB SWAP1 REVERT JUMPDEST PUSH1 0x0 JUMPDEST DUP3 DUP3 SWAP1 POP DUP2 LT ISZERO PUSH2 0x8BD JUMPI DUP3 DUP3 DUP3 DUP2 DUP2 LT PUSH2 0x825 JUMPI PUSH2 0x824 PUSH2 0xFFB JUMP JUMPDEST JUMPDEST SWAP1 POP PUSH1 0x20 MUL ADD PUSH1 0x20 DUP2 ADD SWAP1 PUSH2 0x83A SWAP2 SWAP1 PUSH2 0xD7A JUMP JUMPDEST PUSH20 0xFFFFFFFFFFFFFFFFFFFFFFFFFFFFFFFFFFFFFFFF AND PUSH8 0xDE0B6B3A7640000 PUSH1 0x40 MLOAD PUSH2 0x865 SWAP1 PUSH2 0x1386 JUMP JUMPDEST PUSH1 0x0 PUSH1 0x40 MLOAD DUP1 DUP4 SUB DUP2 DUP6 DUP8 GAS CALL SWAP3 POP POP POP RETURNDATASIZE DUP1 PUSH1 0x0 DUP2 EQ PUSH2 0x8A2 JUMPI PUSH1 0x40 MLOAD SWAP2 POP PUSH1 0x1F NOT PUSH1 0x3F RETURNDATASIZE ADD AND DUP3 ADD PUSH1 0x40 MSTORE RETURNDATASIZE DUP3 MSTORE RETURNDATASIZE PUSH1 0x0 PUSH1 0x20 DUP5 ADD RETURNDATACOPY PUSH2 0x8A7 JUMP JUMPDEST PUSH1 0x60 SWAP2 POP JUMPDEST POP POP POP DUP1 DUP1 PUSH2 0x8B5 SWAP1 PUSH2 0x102A JUMP JUMPDEST SWAP2 POP POP PUSH2 0x807 JUMP JUMPDEST POP PUSH1 0x1 PUSH1 0x5 PUSH1 0x0 DUP3 DUP3 SLOAD PUSH2 0x8D1 SWAP2 SWAP1 PUSH2 0xFA5 JUMP JUMPDEST SWAP3 POP POP DUP2 SWAP1 SSTORE POP PUSH1 0x1 PUSH1 0x4 PUSH1 0x0 CALLER PUSH20 0xFFFFFFFFFFFFFFFFFFFFFFFFFFFFFFFFFFFFFFFF AND PUSH20 0xFFFFFFFFFFFFFFFFFFFFFFFFFFFFFFFFFFFFFFFF AND DUP2 MSTORE PUSH1 0x20 ADD SWAP1 DUP2 MSTORE PUSH1 0x20 ADD PUSH1 0x0 KECCAK256 PUSH1 0x0 PUSH2 0x100 EXP DUP2 SLOAD DUP2 PUSH1 0xFF MUL NOT AND SWAP1 DUP4 ISZERO ISZERO MUL OR SWAP1 SSTORE POP PUSH1 0x3 CALLER SWAP1 DUP1 PUSH1 0x1 DUP2 SLOAD ADD DUP1 DUP3 SSTORE DUP1 SWAP2 POP POP PUSH1 0x1 SWAP1 SUB SWAP1 PUSH1 0x0 MSTORE PUSH1 0x20 PUSH1 0x0 KECCAK256 ADD PUSH1 0x0 SWAP1 SWAP2 SWAP1 SWAP2 SWAP1 SWAP2 PUSH2 0x100 EXP DUP2 SLOAD DUP2 PUSH20 0xFFFFFFFFFFFFFFFFFFFFFFFFFFFFFFFFFFFFFFFF MUL NOT AND SWAP1 DUP4 PUSH20 0xFFFFFFFFFFFFFFFFFFFFFFFFFFFFFFFFFFFFFFFF AND MUL OR SWAP1 SSTORE POP PUSH1 0x1 PUSH1 0x0 DUP2 SWAP1 SSTORE POP POP POP JUMP JUMPDEST PUSH2 0x9A7 PUSH2 0xBB7 JUMP JUMPDEST PUSH20 0xFFFFFFFFFFFFFFFFFFFFFFFFFFFFFFFFFFFFFFFF AND PUSH2 0x9C5 PUSH2 0x56F JUMP JUMPDEST PUSH20 0xFFFFFFFFFFFFFFFFFFFFFFFFFFFFFFFFFFFFFFFF AND EQ PUSH2 0xA1B JUMPI PUSH1 0x40 MLOAD PUSH32 0x8C379A000000000000000000000000000000000000000000000000000000000 DUP2 MSTORE PUSH1 0x4 ADD PUSH2 0xA12 SWAP1 PUSH2 0xF56 JUMP JUMPDEST PUSH1 0x40 MLOAD DUP1 SWAP2 SUB SWAP1 REVERT JUMPDEST DUP2 PUSH20 0xFFFFFFFFFFFFFFFFFFFFFFFFFFFFFFFFFFFFFFFF AND DUP2 PUSH1 0x40 MLOAD PUSH2 0xA3F SWAP1 PUSH2 0x1386 JUMP JUMPDEST PUSH1 0x0 PUSH1 0x40 MLOAD DUP1 DUP4 SUB DUP2 DUP6 DUP8 GAS CALL SWAP3 POP POP POP RETURNDATASIZE DUP1 PUSH1 0x0 DUP2 EQ PUSH2 0xA7C JUMPI PUSH1 0x40 MLOAD SWAP2 POP PUSH1 0x1F NOT PUSH1 0x3F RETURNDATASIZE ADD AND DUP3 ADD PUSH1 0x40 MSTORE RETURNDATASIZE DUP3 MSTORE RETURNDATASIZE PUSH1 0x0 PUSH1 0x20 DUP5 ADD RETURNDATACOPY PUSH2 0xA81 JUMP JUMPDEST PUSH1 0x60 SWAP2 POP JUMPDEST POP POP POP PUSH32 0x5B6B431D4476A211BB7D41C20D1AAB9AE2321DEEE0D20BE3D9FC9B1093FA6E3D DUP2 PUSH1 0x40 MLOAD PUSH2 0xAB3 SWAP2 SWAP1 PUSH2 0xD01 JUMP JUMPDEST PUSH1 0x40 MLOAD DUP1 SWAP2 SUB SWAP1 LOG1 POP POP JUMP JUMPDEST PUSH2 0xAC7 PUSH2 0xBB7 JUMP JUMPDEST PUSH20 0xFFFFFFFFFFFFFFFFFFFFFFFFFFFFFFFFFFFFFFFF AND PUSH2 0xAE5 PUSH2 0x56F JUMP JUMPDEST PUSH20 0xFFFFFFFFFFFFFFFFFFFFFFFFFFFFFFFFFFFFFFFF AND EQ PUSH2 0xB3B JUMPI PUSH1 0x40 MLOAD PUSH32 0x8C379A000000000000000000000000000000000000000000000000000000000 DUP2 MSTORE PUSH1 0x4 ADD PUSH2 0xB32 SWAP1 PUSH2 0xF56 JUMP JUMPDEST PUSH1 0x40 MLOAD DUP1 SWAP2 SUB SWAP1 REVERT JUMPDEST PUSH1 0x0 PUSH20 0xFFFFFFFFFFFFFFFFFFFFFFFFFFFFFFFFFFFFFFFF AND DUP2 PUSH20 0xFFFFFFFFFFFFFFFFFFFFFFFFFFFFFFFFFFFFFFFF AND EQ ISZERO PUSH2 0xBAB JUMPI PUSH1 0x40 MLOAD PUSH32 0x8C379A000000000000000000000000000000000000000000000000000000000 DUP2 MSTORE PUSH1 0x4 ADD PUSH2 0xBA2 SWAP1 PUSH2 0x140D JUMP JUMPDEST PUSH1 0x40 MLOAD DUP1 SWAP2 SUB SWAP1 REVERT JUMPDEST PUSH2 0xBB4 DUP2 PUSH2 0xBBF JUMP JUMPDEST POP JUMP JUMPDEST PUSH1 0x0 CALLER SWAP1 POP SWAP1 JUMP JUMPDEST PUSH1 0x0 PUSH1 0x1 PUSH1 0x0 SWAP1 SLOAD SWAP1 PUSH2 0x100 EXP SWAP1 DIV PUSH20 0xFFFFFFFFFFFFFFFFFFFFFFFFFFFFFFFFFFFFFFFF AND SWAP1 POP DUP2 PUSH1 0x1 PUSH1 0x0 PUSH2 0x100 EXP DUP2 SLOAD DUP2 PUSH20 0xFFFFFFFFFFFFFFFFFFFFFFFFFFFFFFFFFFFFFFFF MUL NOT AND SWAP1 DUP4 PUSH20 0xFFFFFFFFFFFFFFFFFFFFFFFFFFFFFFFFFFFFFFFF AND MUL OR SWAP1 SSTORE POP DUP2 PUSH20 0xFFFFFFFFFFFFFFFFFFFFFFFFFFFFFFFFFFFFFFFF AND DUP2 PUSH20 0xFFFFFFFFFFFFFFFFFFFFFFFFFFFFFFFFFFFFFFFF AND PUSH32 0x8BE0079C531659141344CD1FD0A4F28419497F9722A3DAAFE3B4186F6B6457E0 PUSH1 0x40 MLOAD PUSH1 0x40 MLOAD DUP1 SWAP2 SUB SWAP1 LOG3 POP POP JUMP JUMPDEST PUSH1 0x0 DUP1 REVERT JUMPDEST PUSH1 0x0 DUP1 REVERT JUMPDEST PUSH1 0x0 DUP2 SWAP1 POP SWAP2 SWAP1 POP JUMP JUMPDEST PUSH2 0xCA2 DUP2 PUSH2 0xC8F JUMP JUMPDEST DUP2 EQ PUSH2 0xCAD JUMPI PUSH1 0x0 DUP1 REVERT JUMPDEST POP JUMP JUMPDEST PUSH1 0x0 DUP2 CALLDATALOAD SWAP1 POP PUSH2 0xCBF DUP2 PUSH2 0xC99 JUMP JUMPDEST SWAP3 SWAP2 POP POP JUMP JUMPDEST PUSH1 0x0 PUSH1 0x20 DUP3 DUP5 SUB SLT ISZERO PUSH2 0xCDB JUMPI PUSH2 0xCDA PUSH2 0xC85 JUMP JUMPDEST JUMPDEST PUSH1 0x0 PUSH2 0xCE9 DUP5 DUP3 DUP6 ADD PUSH2 0xCB0 JUMP JUMPDEST SWAP2 POP POP SWAP3 SWAP2 POP POP JUMP JUMPDEST PUSH2 0xCFB DUP2 PUSH2 0xC8F JUMP JUMPDEST DUP3 MSTORE POP POP JUMP JUMPDEST PUSH1 0x0 PUSH1 0x20 DUP3 ADD SWAP1 POP PUSH2 0xD16 PUSH1 0x0 DUP4 ADD DUP5 PUSH2 0xCF2 JUMP JUMPDEST SWAP3 SWAP2 POP POP JUMP JUMPDEST PUSH1 0x0 PUSH20 0xFFFFFFFFFFFFFFFFFFFFFFFFFFFFFFFFFFFFFFFF DUP3 AND SWAP1 POP SWAP2 SWAP1 POP JUMP JUMPDEST PUSH1 0x0 PUSH2 0xD47 DUP3 PUSH2 0xD1C JUMP JUMPDEST SWAP1 POP SWAP2 SWAP1 POP JUMP JUMPDEST PUSH2 0xD57 DUP2 PUSH2 0xD3C JUMP JUMPDEST DUP2 EQ PUSH2 0xD62 JUMPI PUSH1 0x0 DUP1 REVERT JUMPDEST POP JUMP JUMPDEST PUSH1 0x0 DUP2 CALLDATALOAD SWAP1 POP PUSH2 0xD74 DUP2 PUSH2 0xD4E JUMP JUMPDEST SWAP3 SWAP2 POP POP JUMP JUMPDEST PUSH1 0x0 PUSH1 0x20 DUP3 DUP5 SUB SLT ISZERO PUSH2 0xD90 JUMPI PUSH2 0xD8F PUSH2 0xC85 JUMP JUMPDEST JUMPDEST PUSH1 0x0 PUSH2 0xD9E DUP5 DUP3 DUP6 ADD PUSH2 0xD65 JUMP JUMPDEST SWAP2 POP POP SWAP3 SWAP2 POP POP JUMP JUMPDEST PUSH1 0x0 DUP2 ISZERO ISZERO SWAP1 POP SWAP2 SWAP1 POP JUMP JUMPDEST PUSH2 0xDBC DUP2 PUSH2 0xDA7 JUMP JUMPDEST DUP3 MSTORE POP POP JUMP JUMPDEST PUSH1 0x0 PUSH1 0x20 DUP3 ADD SWAP1 POP PUSH2 0xDD7 PUSH1 0x0 DUP4 ADD DUP5 PUSH2 0xDB3 JUMP JUMPDEST SWAP3 SWAP2 POP POP JUMP JUMPDEST PUSH2 0xDE6 DUP2 PUSH2 0xD3C JUMP JUMPDEST DUP3 MSTORE POP POP JUMP JUMPDEST PUSH1 0x0 PUSH1 0x20 DUP3 ADD SWAP1 POP PUSH2 0xE01 PUSH1 0x0 DUP4 ADD DUP5 PUSH2 0xDDD JUMP JUMPDEST SWAP3 SWAP2 POP POP JUMP JUMPDEST PUSH1 0x0 DUP1 REVERT JUMPDEST PUSH1 0x0 DUP1 REVERT JUMPDEST PUSH1 0x0 DUP1 REVERT JUMPDEST PUSH1 0x0 DUP1 DUP4 PUSH1 0x1F DUP5 ADD SLT PUSH2 0xE2C JUMPI PUSH2 0xE2B PUSH2 0xE07 JUMP JUMPDEST JUMPDEST DUP3 CALLDATALOAD SWAP1 POP PUSH8 0xFFFFFFFFFFFFFFFF DUP2 GT ISZERO PUSH2 0xE49 JUMPI PUSH2 0xE48 PUSH2 0xE0C JUMP JUMPDEST JUMPDEST PUSH1 0x20 DUP4 ADD SWAP2 POP DUP4 PUSH1 0x20 DUP3 MUL DUP4 ADD GT ISZERO PUSH2 0xE65 JUMPI PUSH2 0xE64 PUSH2 0xE11 JUMP JUMPDEST JUMPDEST SWAP3 POP SWAP3 SWAP1 POP JUMP JUMPDEST PUSH1 0x0 DUP1 PUSH1 0x20 DUP4 DUP6 SUB SLT ISZERO PUSH2 0xE83 JUMPI PUSH2 0xE82 PUSH2 0xC85 JUMP JUMPDEST JUMPDEST PUSH1 0x0 DUP4 ADD CALLDATALOAD PUSH8 0xFFFFFFFFFFFFFFFF DUP2 GT ISZERO PUSH2 0xEA1 JUMPI PUSH2 0xEA0 PUSH2 0xC8A JUMP JUMPDEST JUMPDEST PUSH2 0xEAD DUP6 DUP3 DUP7 ADD PUSH2 0xE16 JUMP JUMPDEST SWAP3 POP SWAP3 POP POP SWAP3 POP SWAP3 SWAP1 POP JUMP JUMPDEST PUSH1 0x0 DUP1 PUSH1 0x40 DUP4 DUP6 SUB SLT ISZERO PUSH2 0xED0 JUMPI PUSH2 0xECF PUSH2 0xC85 JUMP JUMPDEST JUMPDEST PUSH1 0x0 PUSH2 0xEDE DUP6 DUP3 DUP7 ADD PUSH2 0xD65 JUMP JUMPDEST SWAP3 POP POP PUSH1 0x20 PUSH2 0xEEF DUP6 DUP3 DUP7 ADD PUSH2 0xCB0 JUMP JUMPDEST SWAP2 POP POP SWAP3 POP SWAP3 SWAP1 POP JUMP JUMPDEST PUSH1 0x0 DUP3 DUP3 MSTORE PUSH1 0x20 DUP3 ADD SWAP1 POP SWAP3 SWAP2 POP POP JUMP JUMPDEST PUSH32 0x4F776E61626C653A2063616C6C6572206973206E6F7420746865206F776E6572 PUSH1 0x0 DUP3 ADD MSTORE POP JUMP JUMPDEST PUSH1 0x0 PUSH2 0xF40 PUSH1 0x20 DUP4 PUSH2 0xEF9 JUMP JUMPDEST SWAP2 POP PUSH2 0xF4B DUP3 PUSH2 0xF0A JUMP JUMPDEST PUSH1 0x20 DUP3 ADD SWAP1 POP SWAP2 SWAP1 POP JUMP JUMPDEST PUSH1 0x0 PUSH1 0x20 DUP3 ADD SWAP1 POP DUP2 DUP2 SUB PUSH1 0x0 DUP4 ADD MSTORE PUSH2 0xF6F DUP2 PUSH2 0xF33 JUMP JUMPDEST SWAP1 POP SWAP2 SWAP1 POP JUMP JUMPDEST PUSH32 0x4E487B7100000000000000000000000000000000000000000000000000000000 PUSH1 0x0 MSTORE PUSH1 0x11 PUSH1 0x4 MSTORE PUSH1 0x24 PUSH1 0x0 REVERT JUMPDEST PUSH1 0x0 PUSH2 0xFB0 DUP3 PUSH2 0xC8F JUMP JUMPDEST SWAP2 POP PUSH2 0xFBB DUP4 PUSH2 0xC8F JUMP JUMPDEST SWAP3 POP DUP3 PUSH32 0xFFFFFFFFFFFFFFFFFFFFFFFFFFFFFFFFFFFFFFFFFFFFFFFFFFFFFFFFFFFFFFFF SUB DUP3 GT ISZERO PUSH2 0xFF0 JUMPI PUSH2 0xFEF PUSH2 0xF76 JUMP JUMPDEST JUMPDEST DUP3 DUP3 ADD SWAP1 POP SWAP3 SWAP2 POP POP JUMP JUMPDEST PUSH32 0x4E487B7100000000000000000000000000000000000000000000000000000000 PUSH1 0x0 MSTORE PUSH1 0x32 PUSH1 0x4 MSTORE PUSH1 0x24 PUSH1 0x0 REVERT JUMPDEST PUSH1 0x0 PUSH2 0x1035 DUP3 PUSH2 0xC8F JUMP JUMPDEST SWAP2 POP PUSH32 0xFFFFFFFFFFFFFFFFFFFFFFFFFFFFFFFFFFFFFFFFFFFFFFFFFFFFFFFFFFFFFFFF DUP3 EQ ISZERO PUSH2 0x1068 JUMPI PUSH2 0x1067 PUSH2 0xF76 JUMP JUMPDEST JUMPDEST PUSH1 0x1 DUP3 ADD SWAP1 POP SWAP2 SWAP1 POP JUMP JUMPDEST PUSH32 0x4E6F7420616E20416666696C6961746521000000000000000000000000000000 PUSH1 0x0 DUP3 ADD MSTORE POP JUMP JUMPDEST PUSH1 0x0 PUSH2 0x10A9 PUSH1 0x11 DUP4 PUSH2 0xEF9 JUMP JUMPDEST SWAP2 POP PUSH2 0x10B4 DUP3 PUSH2 0x1073 JUMP JUMPDEST PUSH1 0x20 DUP3 ADD SWAP1 POP SWAP2 SWAP1 POP JUMP JUMPDEST PUSH1 0x0 PUSH1 0x20 DUP3 ADD SWAP1 POP DUP2 DUP2 SUB PUSH1 0x0 DUP4 ADD MSTORE PUSH2 0x10D8 DUP2 PUSH2 0x109C JUMP JUMPDEST SWAP1 POP SWAP2 SWAP1 POP JUMP JUMPDEST PUSH32 0x496E76616C696420457468657220616D6F756E74000000000000000000000000 PUSH1 0x0 DUP3 ADD MSTORE POP JUMP JUMPDEST PUSH1 0x0 PUSH2 0x1115 PUSH1 0x14 DUP4 PUSH2 0xEF9 JUMP JUMPDEST SWAP2 POP PUSH2 0x1120 DUP3 PUSH2 0x10DF JUMP JUMPDEST PUSH1 0x20 DUP3 ADD SWAP1 POP SWAP2 SWAP1 POP JUMP JUMPDEST PUSH1 0x0 PUSH1 0x20 DUP3 ADD SWAP1 POP DUP2 DUP2 SUB PUSH1 0x0 DUP4 ADD MSTORE PUSH2 0x1144 DUP2 PUSH2 0x1108 JUMP JUMPDEST SWAP1 POP SWAP2 SWAP1 POP JUMP JUMPDEST PUSH32 0x5265656E7472616E637947756172643A207265656E7472616E742063616C6C00 PUSH1 0x0 DUP3 ADD MSTORE POP JUMP JUMPDEST PUSH1 0x0 PUSH2 0x1181 PUSH1 0x1F DUP4 PUSH2 0xEF9 JUMP JUMPDEST SWAP2 POP PUSH2 0x118C DUP3 PUSH2 0x114B JUMP JUMPDEST PUSH1 0x20 DUP3 ADD SWAP1 POP SWAP2 SWAP1 POP JUMP JUMPDEST PUSH1 0x0 PUSH1 0x20 DUP3 ADD SWAP1 POP DUP2 DUP2 SUB PUSH1 0x0 DUP4 ADD MSTORE PUSH2 0x11B0 DUP2 PUSH2 0x1174 JUMP JUMPDEST SWAP1 POP SWAP2 SWAP1 POP JUMP JUMPDEST PUSH32 0x526567697374726174696F6E206E6F7420416374697665210000000000000000 PUSH1 0x0 DUP3 ADD MSTORE POP JUMP JUMPDEST PUSH1 0x0 PUSH2 0x11ED PUSH1 0x18 DUP4 PUSH2 0xEF9 JUMP JUMPDEST SWAP2 POP PUSH2 0x11F8 DUP3 PUSH2 0x11B7 JUMP JUMPDEST PUSH1 0x20 DUP3 ADD SWAP1 POP SWAP2 SWAP1 POP JUMP JUMPDEST PUSH1 0x0 PUSH1 0x20 DUP3 ADD SWAP1 POP DUP2 DUP2 SUB PUSH1 0x0 DUP4 ADD MSTORE PUSH2 0x121C DUP2 PUSH2 0x11E0 JUMP JUMPDEST SWAP1 POP SWAP2 SWAP1 POP JUMP JUMPDEST PUSH32 0x496E76616C6964206C656E677468000000000000000000000000000000000000 PUSH1 0x0 DUP3 ADD MSTORE POP JUMP JUMPDEST PUSH1 0x0 PUSH2 0x1259 PUSH1 0xE DUP4 PUSH2 0xEF9 JUMP JUMPDEST SWAP2 POP PUSH2 0x1264 DUP3 PUSH2 0x1223 JUMP JUMPDEST PUSH1 0x20 DUP3 ADD SWAP1 POP SWAP2 SWAP1 POP JUMP JUMPDEST PUSH1 0x0 PUSH1 0x20 DUP3 ADD SWAP1 POP DUP2 DUP2 SUB PUSH1 0x0 DUP4 ADD MSTORE PUSH2 0x1288 DUP2 PUSH2 0x124C JUMP JUMPDEST SWAP1 POP SWAP2 SWAP1 POP JUMP JUMPDEST PUSH1 0x0 PUSH2 0x129A DUP3 PUSH2 0xC8F JUMP JUMPDEST SWAP2 POP PUSH2 0x12A5 DUP4 PUSH2 0xC8F JUMP JUMPDEST SWAP3 POP DUP2 PUSH32 0xFFFFFFFFFFFFFFFFFFFFFFFFFFFFFFFFFFFFFFFFFFFFFFFFFFFFFFFFFFFFFFFF DIV DUP4 GT DUP3 ISZERO ISZERO AND ISZERO PUSH2 0x12DE JUMPI PUSH2 0x12DD PUSH2 0xF76 JUMP JUMPDEST JUMPDEST DUP3 DUP3 MUL SWAP1 POP SWAP3 SWAP2 POP POP JUMP JUMPDEST PUSH32 0x496E73756666696369656E742045746865720000000000000000000000000000 PUSH1 0x0 DUP3 ADD MSTORE POP JUMP JUMPDEST PUSH1 0x0 PUSH2 0x131F PUSH1 0x12 DUP4 PUSH2 0xEF9 JUMP JUMPDEST SWAP2 POP PUSH2 0x132A DUP3 PUSH2 0x12E9 JUMP JUMPDEST PUSH1 0x20 DUP3 ADD SWAP1 POP SWAP2 SWAP1 POP JUMP JUMPDEST PUSH1 0x0 PUSH1 0x20 DUP3 ADD SWAP1 POP DUP2 DUP2 SUB PUSH1 0x0 DUP4 ADD MSTORE PUSH2 0x134E DUP2 PUSH2 0x1312 JUMP JUMPDEST SWAP1 POP SWAP2 SWAP1 POP JUMP JUMPDEST PUSH1 0x0 DUP2 SWAP1 POP SWAP3 SWAP2 POP POP JUMP JUMPDEST POP JUMP JUMPDEST PUSH1 0x0 PUSH2 0x1370 PUSH1 0x0 DUP4 PUSH2 0x1355 JUMP JUMPDEST SWAP2 POP PUSH2 0x137B DUP3 PUSH2 0x1360 JUMP JUMPDEST PUSH1 0x0 DUP3 ADD SWAP1 POP SWAP2 SWAP1 POP JUMP JUMPDEST PUSH1 0x0 PUSH2 0x1391 DUP3 PUSH2 0x1363 JUMP JUMPDEST SWAP2 POP DUP2 SWAP1 POP SWAP2 SWAP1 POP JUMP JUMPDEST PUSH32 0x4F776E61626C653A206E6577206F776E657220697320746865207A65726F2061 PUSH1 0x0 DUP3 ADD MSTORE PUSH32 0x6464726573730000000000000000000000000000000000000000000000000000 PUSH1 0x20 DUP3 ADD MSTORE POP JUMP JUMPDEST PUSH1 0x0 PUSH2 0x13F7 PUSH1 0x26 DUP4 PUSH2 0xEF9 JUMP JUMPDEST SWAP2 POP PUSH2 0x1402 DUP3 PUSH2 0x139B JUMP JUMPDEST PUSH1 0x40 DUP3 ADD SWAP1 POP SWAP2 SWAP1 POP JUMP JUMPDEST PUSH1 0x0 PUSH1 0x20 DUP3 ADD SWAP1 POP DUP2 DUP2 SUB PUSH1 0x0 DUP4 ADD MSTORE PUSH2 0x1426 DUP2 PUSH2 0x13EA JUMP JUMPDEST SWAP1 POP SWAP2 SWAP1 POP JUMP INVALID LOG2 PUSH5 0x6970667358 0x22 SLT KECCAK256 PUSH2 0xB24C 0x4E 0x2F CALLDATASIZE 0xD9 0x2C CREATE 0xB2 0xD9 0xCA 0xC9 CALLDATALOAD SAR 0xE MLOAD 0x27 0xC8 0x2B DUP1 0xF 0xBE PUSH12 0xF122DCA22DAB9A0D64736F6C PUSH4 0x4300080A STOP CALLER "
        },
        "methodIdentifiers": {
          "addNewAffilliate(address)": "54e62475",
          "affiliates(address)": "4f51e294",
          "affiliatesCount()": "3eb3b9d7",
          "affiliates_(uint256)": "7c6f8a4f",
          "buyOwnerRole(address)": "8f998523",
          "joinPonzi(address[])": "d17e777d",
          "owner()": "8da5cb5b",
          "ownerWithdraw(address,uint256)": "d9c88e14",
          "renounceOwnership()": "715018a6",
          "setDeadline(uint256)": "195199f6",
          "transferOwnership(address)": "f2fde38b"
        }
      }
    }
  }
}