{
  "_format": "hh-sol-artifact-1",
  "contractName": "PonziContract",
  "sourceName": "contracts/Ponzi.sol",
  "abi": [
    {
      "anonymous": false,
      "inputs": [
        {
          "indexed": true,
          "internalType": "address",
          "name": "previousOwner",
          "type": "address"
        },
        {
          "indexed": true,
          "internalType": "address",
          "name": "newOwner",
          "type": "address"
        }
      ],
      "name": "OwnershipTransferred",
      "type": "event"
    },
    {
      "anonymous": false,
      "inputs": [
        {
          "indexed": false,
          "internalType": "uint256",
          "name": "registrationDeadline",
          "type": "uint256"
        }
      ],
      "name": "RegistrationDeadline",
      "type": "event"
    },
    {
      "anonymous": false,
      "inputs": [
        {
          "indexed": false,
          "internalType": "uint256",
          "name": "amount",
          "type": "uint256"
        }
      ],
      "name": "Withdraw",
      "type": "event"
    },
    {
      "inputs": [
        {
          "internalType": "address",
          "name": "newAfilliate",
          "type": "address"
        }
      ],
      "name": "addNewAffilliate",
      "outputs": [],
      "stateMutability": "nonpayable",
      "type": "function"
    },
    {
      "inputs": [
        {
          "internalType": "address",
          "name": "",
          "type": "address"
        }
      ],
      "name": "affiliates",
      "outputs": [
        {
          "internalType": "bool",
          "name": "",
          "type": "bool"
        }
      ],
      "stateMutability": "view",
      "type": "function"
    },
    {
      "inputs": [],
      "name": "affiliatesCount",
      "outputs": [
        {
          "internalType": "uint256",
          "name": "",
          "type": "uint256"
        }
      ],
      "stateMutability": "view",
      "type": "function"
    },
    {
      "inputs": [
        {
          "internalType": "uint256",
          "name": "",
          "type": "uint256"
        }
      ],
      "name": "affiliates_",
      "outputs": [
        {
          "internalType": "address",
          "name": "",
          "type": "address"
        }
      ],
      "stateMutability": "view",
      "type": "function"
    },
    {
      "inputs": [
        {
          "internalType": "address",
          "name": "newAdmin",
          "type": "address"
        }
      ],
      "name": "buyOwnerRole",
      "outputs": [],
      "stateMutability": "payable",
      "type": "function"
    },
    {
      "inputs": [
        {
          "internalType": "address[]",
          "name": "_afilliates",
          "type": "address[]"
        }
      ],
      "name": "joinPonzi",
      "outputs": [],
      "stateMutability": "payable",
      "type": "function"
    },
    {
      "inputs": [],
      "name": "owner",
      "outputs": [
        {
          "internalType": "address",
          "name": "",
          "type": "address"
        }
      ],
      "stateMutability": "view",
      "type": "function"
    },
    {
      "inputs": [
        {
          "internalType": "address",
          "name": "to",
          "type": "address"
        },
        {
          "internalType": "uint256",
          "name": "amount",
          "type": "uint256"
        }
      ],
      "name": "ownerWithdraw",
      "outputs": [],
      "stateMutability": "nonpayable",
      "type": "function"
    },
    {
      "inputs": [],
      "name": "renounceOwnership",
      "outputs": [],
      "stateMutability": "nonpayable",
      "type": "function"
    },
    {
      "inputs": [
        {
          "internalType": "uint256",
          "name": "_regDeadline",
          "type": "uint256"
        }
      ],
      "name": "setDeadline",
      "outputs": [],
      "stateMutability": "nonpayable",
      "type": "function"
    },
    {
      "inputs": [
        {
          "internalType": "address",
          "name": "newOwner",
          "type": "address"
        }
      ],
      "name": "transferOwnership",
      "outputs": [],
      "stateMutability": "nonpayable",
      "type": "function"
    },
    {
      "stateMutability": "payable",
      "type": "receive"
    }
  ],
  "bytecode": "0x608060405234801561001057600080fd5b50600160008190555061003561002a61003a60201b60201c565b61004260201b60201c565b610108565b600033905090565b6000600160009054906101000a900473ffffffffffffffffffffffffffffffffffffffff16905081600160006101000a81548173ffffffffffffffffffffffffffffffffffffffff021916908373ffffffffffffffffffffffffffffffffffffffff1602179055508173ffffffffffffffffffffffffffffffffffffffff168173ffffffffffffffffffffffffffffffffffffffff167f8be0079c531659141344cd1fd0a4f28419497f9722a3daafe3b4186f6b6457e060405160405180910390a35050565b611463806101176000396000f3fe6080604052600436106100a05760003560e01c80637c6f8a4f116100645780637c6f8a4f1461017d5780638da5cb5b146101ba5780638f998523146101e5578063d17e777d14610201578063d9c88e141461021d578063f2fde38b14610246576100a7565b8063195199f6146100ac5780633eb3b9d7146100d55780634f51e2941461010057806354e624751461013d578063715018a614610166576100a7565b366100a757005b600080fd5b3480156100b857600080fd5b506100d360048036038101906100ce9190610cc5565b61026f565b005b3480156100e157600080fd5b506100ea61032e565b6040516100f79190610d01565b60405180910390f35b34801561010c57600080fd5b5061012760048036038101906101229190610d7a565b610334565b6040516101349190610dc2565b60405180910390f35b34801561014957600080fd5b50610164600480360381019061015f9190610d7a565b610354565b005b34801561017257600080fd5b5061017b6104a8565b005b34801561018957600080fd5b506101a4600480360381019061019f9190610cc5565b610530565b6040516101b19190610dec565b60405180910390f35b3480156101c657600080fd5b506101cf61056f565b6040516101dc9190610dec565b60405180910390f35b6101ff60048036038101906101fa9190610d7a565b610599565b005b61021b60048036038101906102169190610e6c565b6106d4565b005b34801561022957600080fd5b50610244600480360381019061023f9190610eb9565b61099f565b005b34801561025257600080fd5b5061026d60048036038101906102689190610d7a565b610abf565b005b610277610bb7565b73ffffffffffffffffffffffffffffffffffffffff1661029561056f565b73ffffffffffffffffffffffffffffffffffffffff16146102eb576040517f08c379a00000000000000000000000000000000000000000000000000000000081526004016102e290610f56565b60405180910390fd5b806002819055507fa5578432a8668d55afd8c2f7b7d6341d25fad387c558cab06890c34b0e59e81f6002546040516103239190610d01565b60405180910390a150565b60055481565b60046020528060005260406000206000915054906101000a900460ff1681565b61035c610bb7565b73ffffffffffffffffffffffffffffffffffffffff1661037a61056f565b73ffffffffffffffffffffffffffffffffffffffff16146103d0576040517f08c379a00000000000000000000000000000000000000000000000000000000081526004016103c790610f56565b60405180910390fd5b6001600560008282546103e39190610fa5565b925050819055506001600460008373ffffffffffffffffffffffffffffffffffffffff1673ffffffffffffffffffffffffffffffffffffffff16815260200190815260200160002060006101000a81548160ff0219169083151502179055506003819080600181540180825580915050600190039060005260206000200160009091909190916101000a81548173ffffffffffffffffffffffffffffffffffffffff021916908373ffffffffffffffffffffffffffffffffffffffff16021790555050565b6104b0610bb7565b73ffffffffffffffffffffffffffffffffffffffff166104ce61056f565b73ffffffffffffffffffffffffffffffffffffffff1614610524576040517f08c379a000000000000000000000000000000000000000000000000000000000815260040161051b90610f56565b60405180910390fd5b61052e6000610bbf565b565b6003818154811061054057600080fd5b906000526020600020016000915054906101000a900473ffffffffffffffffffffffffffffffffffffffff1681565b6000600160009054906101000a900473ffffffffffffffffffffffffffffffffffffffff16905090565b600080600090505b600554811015610635573373ffffffffffffffffffffffffffffffffffffffff16600382815481106105d6576105d5610ffb565b5b9060005260206000200160009054906101000a900473ffffffffffffffffffffffffffffffffffffffff1673ffffffffffffffffffffffffffffffffffffffff16141561062257600191505b808061062d9061102a565b9150506105a1565b50600115158115151461067d576040517f08c379a0000000000000000000000000000000000000000000000000000000008152600401610674906110bf565b60405180910390fd5b678ac7230489e8000034146106c7576040517f08c379a00000000000000000000000000000000000000000000000000000000081526004016106be9061112b565b60405180910390fd5b6106d082610bbf565b5050565b6002600054141561071a576040517f08c379a000000000000000000000000000000000000000000000000000000000815260040161071190611197565b60405180910390fd5b60026000819055506002544210610766576040517f08c379a000000000000000000000000000000000000000000000000000000000815260040161075d90611203565b60405180910390fd5b60055482829050146107ad576040517f08c379a00000000000000000000000000000000000000000000000000000000081526004016107a49061126f565b60405180910390fd5b670de0b6b3a76400006005546107c3919061128f565b3414610804576040517f08c379a00000000000000000000000000000000000000000000000000000000081526004016107fb90611335565b60405180910390fd5b60005b828290508110156108bd5782828281811061082557610824610ffb565b5b905060200201602081019061083a9190610d7a565b73ffffffffffffffffffffffffffffffffffffffff16670de0b6b3a764000060405161086590611386565b60006040518083038185875af1925050503d80600081146108a2576040519150601f19603f3d011682016040523d82523d6000602084013e6108a7565b606091505b50505080806108b59061102a565b915050610807565b506001600560008282546108d19190610fa5565b925050819055506001600460003373ffffffffffffffffffffffffffffffffffffffff1673ffffffffffffffffffffffffffffffffffffffff16815260200190815260200160002060006101000a81548160ff0219169083151502179055506003339080600181540180825580915050600190039060005260206000200160009091909190916101000a81548173ffffffffffffffffffffffffffffffffffffffff021916908373ffffffffffffffffffffffffffffffffffffffff16021790555060016000819055505050565b6109a7610bb7565b73ffffffffffffffffffffffffffffffffffffffff166109c561056f565b73ffffffffffffffffffffffffffffffffffffffff1614610a1b576040517f08c379a0000000000000000000000000000000000000000000000000000000008152600401610a1290610f56565b60405180910390fd5b8173ffffffffffffffffffffffffffffffffffffffff1681604051610a3f90611386565b60006040518083038185875af1925050503d8060008114610a7c576040519150601f19603f3d011682016040523d82523d6000602084013e610a81565b606091505b5050507f5b6b431d4476a211bb7d41c20d1aab9ae2321deee0d20be3d9fc9b1093fa6e3d81604051610ab39190610d01565b60405180910390a15050565b610ac7610bb7565b73ffffffffffffffffffffffffffffffffffffffff16610ae561056f565b73ffffffffffffffffffffffffffffffffffffffff1614610b3b576040517f08c379a0000000000000000000000000000000000000000000000000000000008152600401610b3290610f56565b60405180910390fd5b600073ffffffffffffffffffffffffffffffffffffffff168173ffffffffffffffffffffffffffffffffffffffff161415610bab576040517f08c379a0000000000000000000000000000000000000000000000000000000008152600401610ba29061140d565b60405180910390fd5b610bb481610bbf565b50565b600033905090565b6000600160009054906101000a900473ffffffffffffffffffffffffffffffffffffffff16905081600160006101000a81548173ffffffffffffffffffffffffffffffffffffffff021916908373ffffffffffffffffffffffffffffffffffffffff1602179055508173ffffffffffffffffffffffffffffffffffffffff168173ffffffffffffffffffffffffffffffffffffffff167f8be0079c531659141344cd1fd0a4f28419497f9722a3daafe3b4186f6b6457e060405160405180910390a35050565b600080fd5b600080fd5b6000819050919050565b610ca281610c8f565b8114610cad57600080fd5b50565b600081359050610cbf81610c99565b92915050565b600060208284031215610cdb57610cda610c85565b5b6000610ce984828501610cb0565b91505092915050565b610cfb81610c8f565b82525050565b6000602082019050610d166000830184610cf2565b92915050565b600073ffffffffffffffffffffffffffffffffffffffff82169050919050565b6000610d4782610d1c565b9050919050565b610d5781610d3c565b8114610d6257600080fd5b50565b600081359050610d7481610d4e565b92915050565b600060208284031215610d9057610d8f610c85565b5b6000610d9e84828501610d65565b91505092915050565b60008115159050919050565b610dbc81610da7565b82525050565b6000602082019050610dd76000830184610db3565b92915050565b610de681610d3c565b82525050565b6000602082019050610e016000830184610ddd565b92915050565b600080fd5b600080fd5b600080fd5b60008083601f840112610e2c57610e2b610e07565b5b8235905067ffffffffffffffff811115610e4957610e48610e0c565b5b602083019150836020820283011115610e6557610e64610e11565b5b9250929050565b60008060208385031215610e8357610e82610c85565b5b600083013567ffffffffffffffff811115610ea157610ea0610c8a565b5b610ead85828601610e16565b92509250509250929050565b60008060408385031215610ed057610ecf610c85565b5b6000610ede85828601610d65565b9250506020610eef85828601610cb0565b9150509250929050565b600082825260208201905092915050565b7f4f776e61626c653a2063616c6c6572206973206e6f7420746865206f776e6572600082015250565b6000610f40602083610ef9565b9150610f4b82610f0a565b602082019050919050565b60006020820190508181036000830152610f6f81610f33565b9050919050565b7f4e487b7100000000000000000000000000000000000000000000000000000000600052601160045260246000fd5b6000610fb082610c8f565b9150610fbb83610c8f565b9250827fffffffffffffffffffffffffffffffffffffffffffffffffffffffffffffffff03821115610ff057610fef610f76565b5b828201905092915050565b7f4e487b7100000000000000000000000000000000000000000000000000000000600052603260045260246000fd5b600061103582610c8f565b91507fffffffffffffffffffffffffffffffffffffffffffffffffffffffffffffffff82141561106857611067610f76565b5b600182019050919050565b7f4e6f7420616e20416666696c6961746521000000000000000000000000000000600082015250565b60006110a9601183610ef9565b91506110b482611073565b602082019050919050565b600060208201905081810360008301526110d88161109c565b9050919050565b7f496e76616c696420457468657220616d6f756e74000000000000000000000000600082015250565b6000611115601483610ef9565b9150611120826110df565b602082019050919050565b6000602082019050818103600083015261114481611108565b9050919050565b7f5265656e7472616e637947756172643a207265656e7472616e742063616c6c00600082015250565b6000611181601f83610ef9565b915061118c8261114b565b602082019050919050565b600060208201905081810360008301526111b081611174565b9050919050565b7f526567697374726174696f6e206e6f7420416374697665210000000000000000600082015250565b60006111ed601883610ef9565b91506111f8826111b7565b602082019050919050565b6000602082019050818103600083015261121c816111e0565b9050919050565b7f496e76616c6964206c656e677468000000000000000000000000000000000000600082015250565b6000611259600e83610ef9565b915061126482611223565b602082019050919050565b600060208201905081810360008301526112888161124c565b9050919050565b600061129a82610c8f565b91506112a583610c8f565b9250817fffffffffffffffffffffffffffffffffffffffffffffffffffffffffffffffff04831182151516156112de576112dd610f76565b5b828202905092915050565b7f496e73756666696369656e742045746865720000000000000000000000000000600082015250565b600061131f601283610ef9565b915061132a826112e9565b602082019050919050565b6000602082019050818103600083015261134e81611312565b9050919050565b600081905092915050565b50565b6000611370600083611355565b915061137b82611360565b600082019050919050565b600061139182611363565b9150819050919050565b7f4f776e61626c653a206e6577206f776e657220697320746865207a65726f206160008201527f6464726573730000000000000000000000000000000000000000000000000000602082015250565b60006113f7602683610ef9565b91506114028261139b565b604082019050919050565b60006020820190508181036000830152611426816113ea565b905091905056fea264697066735822122061b24c4e2f36d92cf0b2d9cac9351d0e5127c82b800fbe6bf122dca22dab9a0d64736f6c634300080a0033",
  "linkReferences": {},
  "deployedLinkReferences": {}
}